:020000040800F2
:10000000D80E00200101000843240008871F0008C3
:10001000412400080D050008052A00080000000022
:100020000000000000000000000000009125000812
:10003000470500080000000045240008932500083B
:100040001B0100081B0100081B0100081B01000820
:100050001B0100081B010008490500081B010008DE
:100060001B0100081B0100084F0500081B010008C8
:100070001B0100081B010008110500081B010008F6
:100080001B0100081B0100081B0100081B010008E0
:100090001B0100081B0100081B0100081B010008D0
:1000A0001B010008F92500081B0100081B010008BE
:1000B000052600081B0100081B0100081B010008A1
:1000C0001B0100081B0100081B0100081B010008A0
:1000D0001B0100087D2900081B0100088929000870
:1000E0001B0100081B0100081B010008DFF80CD0F1
:1000F00000F02AF800480047452A0008D80E0020E2
:100100000648804706480047FEE7FEE7FEE7FEE7B1
:10011000FEE7FEE7FEE7FEE7FEE7FEE7F52500085F
:10012000ED000008D2B201E000F8012B491EFBD21D
:1001300070470022F6E710B513460A4604461946F2
:10014000FFF7F0FF204610BD064C074D06E0E068C3
:1001500040F0010394E8070098471034AC42F6D30E
:10016000FFF7C8FFDC2A0008FC2A000830B58C180D
:1001700010F8012B12F00F0301D110F8013B120906
:1001800006D110F8012B03E010F8015B01F8015BC8
:100190005B1EF9D101E001F8013B521EFBD1A142E7
:1001A000E6D3002030BD000070B5194D0446002292
:1001B0000821284600F06AFC012000F04DFB42F2C5
:1001C000107334B1012C07D0022C18D0032C09D1A4
:1001D00019E003220F4902E00E490322C91C0E4810
:1001E00001F0C4F8012000F037FB01220821284665
:1001F00000F04CFCBDE87040012000F02DBB05492B
:100200000322891DEBE7034903220931E7E70000D8
:100210000008014014000020C008002010B54FF471
:100220007A74234603221B491B4801F09FF81949A1
:1002300023460322C91C184801F098F815492346A3
:100240000322891D144801F091F812492346032224
:100250000931114801F08AF80E49234603220C3176
:100260000D4801F083F80B492346032212310A4856
:1002700001F07CF80749234603220F31064801F0BC
:1002800075F8234603490322BDE810400C390248A3
:1002900001F06CB820000020C008002010B518A1A3
:1002A00086B0D1E90001CDE90301174C00220821F5
:1002B000204600F0EBFB012000F0CEFA4FF0FF30BB
:1002C0000090052301AA03A9104801F002F90120BA
:1002D00000F0C2FA01220821204600F0D7FB9DF869
:1002E00005009DF8061001EB00209DF8071006B0F0
:1002F00001EB00200002C11700EB1160001210BDDD
:10030000120000000000000000080140C0080020AA
:100310002DE9F04101225749222000F0AFF855485D
:10032000554D00782E1DA5F13C04012831D05C28E4
:100330004FD00027AB286DD0232828D1FFF7AEFF80
:10034000010CA0632970010A6970A870E0882978FF
:100350003218401C82F82C1880B23218697882F862
:100360002C18401C80B23218A97882F82C18401C36
:10037000E08067823846FFF717FF00F0BFF8E7809C
:1003800027806780A7806781A781E7812782BDE8F2
:10039000F0816089401C6081FFF780FF010CA06341
:1003A0002970010A6970A870208829783218401CC9
:1003B00082F88C1280B23218697882F88C12401C54
:1003C00080B23218A97882F88C12401C208001205B
:1003D0001EE0A089401CA081FFF760FF010CA06314
:1003E0002970010A6970A870608829783218401C49
:1003F00082F86C1480B23218697882F86C14401C50
:1004000080B23218A97882F86C14401C60800220F7
:10041000608223E0E089401CE081FFF73FFF010C90
:10042000A0632970010A6970A870A0882978321821
:10043000401C82F84C1680B23218697882F84C164B
:10044000401C80B23218401CA97880B282F84C1649
:10045000A080B0F5F07F07D06782608AFFF7A4FE26
:10046000BDE8F04100F04AB803206082FFF79CFE2F
:10047000F3E70000A40800203C000020F8B5194E66
:1004800014460F46054600220821304600F0FEFAC9
:10049000012000F0E1F945F020008DF80000601E19
:1004A0008DF801004FF0FF352B46022269460E48B9
:1004B00000F05CFF2B46224639460B4800F0ACFEAC
:1004C00000208DF800002B4601226946064800F006
:1004D0004DFF012000F0C0F901220821304600F054
:1004E000D5FAF8BD00080140C0080020012204210F
:1004F000014800F0CBBA00000008014000220421AE
:10050000014800F0C3BA000000080140FEE7000007
:10051000014800F091B80000900A002030B590F832
:1005200040500124AC40C56B6C6004686360436854
:10053000102B036803D099600068C26030BD9A60D8
:100540000068C16030BD7047012000F0A3B91020E1
:1005500000F0A0B972B6FEE710B590F821100022A5
:10056000022905D00421816380F82020012010BDDC
:1005700001680B6823F00E030B6001680B6823F021
:1005800001030B6090F84030C46B012101FA03F3C2
:10059000636080F8211080F82020104610BD000014
:1005A00010B590F821100024022903D004218163A2
:1005B00001243DE001680A6822F00E020A60016829
:1005C0000A6822F001020A601A4A0168914201D1C8
:1005D000012121E0174A1432914201D110211BE080
:1005E000144A2832914201D1891515E0114A3C3252
:1005F000914201D189140FE00E4A5032914202D14A
:100600004FF4803108E00B4A6432914202D14FF43A
:10061000801101E04FF08071064A083A51600121D3
:1006200080F82110002180F82010416B01B188472B
:10063000204610BD080002402DE9F05FC16B0C6838
:1006400001680B68D0F840C0042202FA0CF2494D50
:10065000DFF824A1494E4A4FDFF828B1DFF828E13E
:1006600022422CD05A072AD50A68920603D40A6877
:1006700022F004020A600168A94201D1042219E0B3
:10068000514501D1402215E0B14202D14FF48062C0
:1006900010E0B94202D14FF480420BE0594502D13B
:1006A0004FF4802206E0714502D14FF4800201E050
:1006B0004FF080622F4908394A60C16A3BE04FF031
:1006C000020808FA0CF818EA040F4FF000094FF07E
:1006D000010235D05FEA837832D50B689B0605D4DA
:1006E0000B6823F00A030B6080F821200168A942FF
:1006F00001D1022219E0514501D1202215E0B14279
:1007000002D14FF4007210E0B94202D14FF400520E
:100710000BE0594502D14FF4003206E0714502D199
:100720004FF4001201E04FF00072124908394A609C
:1007300080F82090816A00291AD0BDE8F05F084750
:10074000082505FA0CF5254212D01B0710D50B68B9
:1007500023F00E030B6090F84010C36B02FA01F116
:100760005960826380F8212080F82090016BE2E7D5
:10077000BDE8F09F080002401C000240300002402B
:1007800044000240580002406C00024030B528B3DB
:1007900008C8134914221944B1FBF2F18900C1635E
:1007A00010498163022141771A6843F6F0718A4348
:1007B000D0E900142143D0E902452C4321430469C8
:1007C0002143446921438469214311431960002175
:1007D0004163012242770177084630BD012030BDD8
:1007E000F8FFFDBF0000024070B5044690F82000FD
:1007F000002501280CD0012084F8200094F8216005
:100800000020012E06D084F820000225284670BD65
:10081000022070BD022684F82160A063206806686B
:1008200026F0010606602046FFF778FEE06A002801
:100830002068016802D041F00E0106E021F00401B9
:1008400001602068016841F00A01016020680168C8
:1008500041F001010160D9E770B5044600F01CF9D0
:100860000546601C02D004480078044400F014F9E6
:10087000401BA042FAD370BD940800200121044A15
:10088000102803D0012800D15170704711707047B3
:100890008F080020044910B50A68024202D008609F
:1008A000FFF7ECFF10BD0000140401402DE9F84FE4
:1008B000DFF8B8910024A9F1040B23460F2709F1B2
:1008C000040AABF1040EC9E00125A5402A40AA4262
:1008D0007DD1674ED1F804C0ACEB0608B44532D0E8
:1008E00014DCBCF1030F3AD009DCBCF1000F2AD0B4
:1008F000BCF1010F1CD0BCF1020F31D11DE0BCF1E5
:10090000110F17D0BCF1120F2AD119E0B8F5881FCA
:1009100019D006DCB8F5803F15D0B8F5801F1FD17F
:1009200011E0B8F5001F0ED0B8F5041F18D10AE089
:10093000CB6815E0CB681B1D12E0CB6808330FE0D5
:10094000CB680C330CE08B682BB1012B4FF0080304
:1009500003D0456104E0042302E0056100E00023C8
:10096000FF2A01D8064601E000F104064FEA84059B
:1009700001D9A5F12005D6F8008007FA05FC28EA80
:100980000C0803FA05F548EA0508C6F800804D682A
:10099000ED0062D5374DAE6946F00106AE61AD6936
:1009A00024F0030605F001050095334D06EB050C18
:1009B000DCF80850A607360F07FA06F825EA0805FE
:1009C000DFF8B880404503D14FF0000817E044E05D
:1009D000DFF8AC80404502D14FF001080FE0DFF8AE
:1009E000A480404502D14FF0020808E0DFF898806B
:1009F000404502D14FF0030801E04FF0040808FA27
:100A000006F848EA0508CCF808804D68D9F8006077
:100A1000ED024D4601D5164300E096432E604D6829
:100A2000DAF80060AD02554601D5164300E0964362
:100A30002E604D68DBF80060AD035D4601D51643BE
:100A400000E096432E604D68DEF80060ED037546C9
:100A500001D5164300E096432E60641C0D682A46BB
:100A6000E5407FF431AFBDE8F88F00000804014095
:100A70000000111000100240000001400008014079
:100A8000000C014000100140001401400AB1016156
:100A900070470904FBE700000148806870470000C8
:100AA00094080020024881680278114481607047F0
:100AB00094080020074810B5016841F0100101605A
:100AC000032000F075F80F2000F006F800F024F87D
:100AD000002010BD0020024070B50D4D04464FF4BB
:100AE0007A712878B1FBF0F00A490968B1FBF0F09F
:100AF00000F0E7FD48B9102C07D200222146501E15
:100B000000F036F800206C6070BD012070BD000060
:100B100094080020A00800200C4808B5816941F025
:100B200001018161816901F001010091C16941F018
:100B30008051C161C06900F0805000900448416854
:100B400021F0E06141F00071416008BD00100240F9
:100B500000000140002809DB00F01F020121914044
:100B60004009800000F1E020C0F80011704700004B
:100B7000F0B40E4B1B680C46C3F30223C3F1070508
:100B8000042D00D90425191D072901D2002300E0F6
:100B9000DB1E012606FA05F1491E214099409E40C0
:100BA000761E16403143F0BC01F02DBF0CED00E085
:100BB000064900F0070208684FF6FF03184040EAB4
:100BC0000220034A10430860704700000CED00E06B
:100BD0000000FA052DE9F0470F46050061D0434EAD
:100BE000306800F00700B84209D2306820F00700F2
:100BF00038433060306800F00700B84251D12868AF
:100C00003B4C810712D5400703D5606840F4E06093
:100C100060602878000703D5606840F46050606029
:100C20006068A96820F0F000084360602878C00779
:100C300028D06868012810D02168022810D08907C0
:100C400000292EDA616821F0030101436160FFF79A
:100C500023FF804641F288390DE021688903EFE7E0
:100C60008901EDE7FFF718FFA0EB0801494502D91C
:100C70000320BDE8F0876068696800F00C00B0EB05
:100C8000810FEFD1306800F00700B8420BD930680F
:100C900020F0070038433060306800F00700B842A9
:100CA00001D00120E5E72878400705D56068E968AC
:100CB00020F4E060084360602878000706D560688B
:100CC000296920F4605040EAC100606000F038F803
:100CD0006168084AC1F30311515CC84006490860C5
:100CE00006480068FFF7F8FE0020C2E70020024037
:100CF00000100240C22A0008A00800209808002026
:100D00000448054900684968044AC1F30221515C5E
:100D1000C8407047A008002000100240D22A0008F6
:100D20000448054900684968044AC1F3C221515C7E
:100D3000C8407047A008002000100240D22A0008D6
:100D40000E4A51680E4801F00C03042B11D0082BF9
:100D50000FD10C48C1F38343C903C05C0AD5516865
:100D6000084AC1F34041921E515C054A5043B0FB12
:100D7000F1F07047044948437047000000100240FA
:100D800000127A00B22A000800093D002DE9F84F50
:100D9000040070D02078C04DC00749D06868C0F307
:100DA0008100012807D06868C0F38100022809D1BA
:100DB0006868C00306D52868800339D560680028B4
:100DC000E7D035E06068B0F5803F0BD010B1B0F5EA
:100DD000A02F11D0286820F480302860286820F4E3
:100DE000802002E0286840F480302860606890B17C
:100DF000FFF752FE06460AE0286840F4802028608B
:100E0000F0E700BFFFF748FE801B642873D828680E
:100E10008003F7D50CE0FFF73FFE064605E000BF74
:100E2000FFF73AFE801B6428F0D828688003F7D4C7
:100E300020789A4E80074FF001094FF0000839D50D
:100E4000686810F00C0F07D06868C0F381000228B2
:100E500009D16868C00306D42868800714D52069C2
:100E6000012808D110E02069B0B1C6F80090FFF762
:100E700013FE074605E00AE1FFF70EFEC01B02283D
:100E8000C4D828688007F7D52868616920F0F80081
:100E900040EAC10028600DE0C6F80080FFF7FCFDC5
:100EA000074604E0FFF7F8FDC01B022823D8286896
:100EB0008007F7D4207800072CD57948A169D9B1EB
:100EC000C0F80090FFF7E8FD074604E0FFF7E4FDF7
:100ED000C01B02280FD8686A8007F7D571484FF405
:100EE000FA510068B0FBF1F0009000BF0098411E7D
:100EF0000091FAD20EE080E0C0F80080FFF7CCFD50
:100F0000074604E0FFF7C8FDC01B022875D8686AD1
:100F10008007F7D42078400760D5E8690027C00033
:100F200008D4E86940F08050E861E869012700F0E2
:100F3000805000905C480168C90513D4016883465D
:100F400041F480710160FFF7A7FD824606E000BF13
:100F5000FFF7A2FDA0EB0A0064284ED8DBF80000E2
:100F6000C005F5D5E06801280AD008B1052813D0DE
:100F7000286A20F001002862286A20F0040002E0BC
:100F8000286A40F001002862E06841F2883B98B18D
:100F9000FFF782FD82460BE0286A40F004002862D9
:100FA000EEE700BFFFF778FDA0EB0A0159455AD8DC
:100FB000286A8007F6D50CE0FFF76EFD824605E053
:100FC000FFF76AFDA0EB0A0159454CD8286A800753
:100FD000F6D41FB1E86920F08050E861E06988B379
:100FE0006968C1F38101022944D00228C6F86080F3
:100FF00004D0FFF751FD044638E034E0FFF74CFD24
:10100000074604E0FFF748FDC01B02282BD82868DC
:101010008001F7D4206AB0F5803F05D16868A168E7
:1010200020F4003008436860D4E908010843696887
:1010300021F4741108436860C6F86090FFF72CFD36
:10104000044606E025E000BFFFF726FD001B02284E
:1010500009D828688001F7D51BE000BFFFF71CFD09
:10106000001B022802D90320BDE8F88F2868800100
:10107000F4D40EE00128F7D06868226A00F48031C9
:10108000914204D1616A00F47010884201D00120BD
:10109000EAE70020E8E700000010024000004242BA
:1010A00080044242A00800200070004070B5040097
:1010B00009D0606A002540B125616561A56294F898
:1010C000510040B10CE0012070BD6068B0F5827F36
:1010D000F4D0E561F2E784F85050204600F040F883
:1010E000022084F851002068016821F0400101606D
:1010F000A088218900F4827001F404410843A18989
:1011000001F400610843217C01F002010843217DC4
:1011100001F001010843218B01F400710843217F94
:1011200001F03801084394F8201001F080010843D1
:10113000218D01F40051084321680860A069042151
:1011400001EA1040216848602068C16921F400610B
:10115000C1616565012084F85100002070BD000068
:1011600030B585B000240094019402940394254D79
:101170000368254802210322AB421AD1836943F454
:1011800080538361836903F480530493836943F03C
:101190000403836180691D4D00F004000490A020C9
:1011A000CDE90001039269462846FFF77FFB402006
:1011B0001EE0174DAB4222D1C36943F48043C361A3
:1011C000C36903F480430493836943F00803836194
:1011D0008069104D00F0080004904FF42040CDE9E4
:1011E0000001039269462846FFF760FB4FF48040F8
:1011F000CDE90004694628460294FFF757FB05B085
:1012000030BD0000003001400010024000080140E5
:1012100000380040000C01402DE9F84F044690F8DA
:1012200051001D4616460F46012838D160684FF020
:101230000408B0F5827F01D1A06830B3FFF72CFC21
:101240008246002F75D0002E73D094F850000128EC
:1012500025D04FF0010984F8509084F851804FF068
:101260000008C4F85480A763A687E687C4F83080D6
:10127000A4F83480A4F83680C4F84080C4F84480D0
:10128000A068B0F5004F0CD015E084F851800093B1
:1012900013460A46204600F01CF9BDE8F88F0220EC
:1012A000FBE72068016821F04001016020680168C7
:1012B00021F48041016020680168490603D4016877
:1012C00041F040010160E068C0B134E0206881680D
:1012D000C90709D0007BA16B0870A06B401CA063FC
:1012E000E08F401EE08709E0FFF7D6FBA0EB0A0085
:1012F000A84202D3681C01D032E085B3E08F0028F9
:10130000E4D11BE020688168C90709D0C068A16BDF
:101310000880A06B801CA063E08F401EE0870AE07D
:10132000FFF7BAFBA0EB0A00A84203D3681C02D067
:1013300016E012E09DB1E08F0028E3D15246294625
:10134000204601F080F808B12020606584F85190B3
:1013500084F85080606D00289FD001209DE7FFE752
:1013600084F8519084F85080032096E72DE9F84FD7
:10137000984616468A460446FFF78EFB814694F847
:10138000510001281ED1BAF1000F73D0002E71D088
:1013900094F85000012815D0012784F850700320DC
:1013A00084F8510000256565C4F830A0A686E6865D
:1013B000A563A587E58765642564A068B0F5004F3F
:1013C00003D00CE00220BDE8F88F2068016821F00E
:1013D000400101602068016841F48041016020689B
:1013E0000168490603D4016841F040010160E068EA
:1013F000B0F5006F606803D048B3012E27D047E0F6
:1014000008B1012E1FD1206B21680088C86006E05A
:1014100020688168890709D5216B0988C160206B24
:10142000801C2063E08E401EE0860CE0FFF734FB5A
:10143000A0EB0901414503D3B8F1FF3F03D035E0EC
:10144000B8F1000F32D0E08E0028E1D123E0206B0C
:1014500021680078087306E02068816889070AD54A
:10146000216B09780173206B401C2063E08E401EC5
:10147000E0860DE02BE0FFF70FFBA0EB09014145F3
:1014800003D3B8F1FF3F03D010E0B8F1000F0DD047
:10149000E08E0028E0D14A464146204601F001F89E
:1014A00008B120206065A06830B109E084F851706F
:1014B00084F85050032086E72068C1688068009057
:1014C00084F8517004F8505F60680028F3D0012060
:1014D00079E72DE9FF4F81B01D46934604464FF052
:1014E00001090E9EFFF7D8FA074694F8510061688B
:1014F000012806D0B1F5827F3CD1A168C9BB042880
:1015000038D10298002871D0BBF1000FFBD0002D1C
:10151000F9D094F8500001282CD04FF0010A84F83B
:1015200050A094F85100042802D0052084F85100FE
:101530004FF00008C4F85480C4F838B0E587A58798
:1015400002992163E586A586C4F84080C4F84480EA
:1015500020680168490603D4016841F04001016038
:10156000E068B0F5006F606808D0F0B3012D49D095
:1015700081E0FFE7022005B0BDE8F08F08B1012D42
:1015800039D1206B21680088C860206B801C2063E3
:10159000E08E401EE0862EE02068816889070FD526
:1015A000E18E69B1B9F1010F0AD1216B0988C160DF
:1015B000206B801C2063E08E401EE0864FF0000907
:1015C00020688168C9070CD0E18F51B1C068A16B58
:1015D0000880A06B801CA063E08F401EE0874FF066
:1015E0000109FFF759FAC01B01E00BE067E0B042C8
:1015F00001D3701C50D1E08E0028CDD1E08F00289F
:10160000CAD13EE0206B216800780873206B401C33
:101610002063E08E401EE0862DE020688168890707
:101620000FD5E18E69B1B9F1010F0AD1216B0978AB
:101630000173206B401C2063E08E401EE0864FF05B
:10164000000920688168C9070CD0E18F51B1C068DA
:10165000A16B0870A06B401CA063E08F401EE08768
:101660004FF00109FFF718FAC01BB04202D3701CFB
:1016700001D011E086B1E08E0028CED1E08F0028A5
:10168000CBD13A463146204600F00BFF50B1202026
:10169000606584F8508012E084F851A084F850808E
:1016A000032068E7A06818B92068C16880680090C6
:1016B00084F851A084F85080606D0028F1D001209A
:1016C00059E710B5401EB0F1807F01D3012010BD55
:1016D0004FF0E02460610F21601701F094F90020C1
:1016E000A06107202061002010BD704770470000F6
:1016F00070B590F83C20012A26D0012480F83C40A7
:10170000022280F83D2003685A689D6822F0700626
:101710000A6832435A600D4B02689A4208D0B2F10F
:10172000804F05D00A4B9A4202D00A4B9A4204D10C
:10173000496825F080031943916080F83D400021FD
:1017400080F83C10084670BD022070BD002C01409E
:10175000000400400008004010B5040003D094F8D5
:101760003D0010B107E0012010BD002084F83C00CE
:10177000204600F01FF8022084F83D00211D20685B
:1017800000F046FF012084F8460084F83E0084F80B
:101790003F0084F8400084F8410084F8420084F857
:1017A000430084F8440084F8450084F83D0000209C
:1017B00010BD000008B5154A0168154891420ED1C8
:1017C000816941F4006181618069002200F4006058
:1017D000009011461920FFF7CBF9192010E0B1F164
:1017E000804F11D1C16941F00101C161C06900227E
:1017F00000F00100009011461C20FFF7B9F91C20F1
:10180000BDE80840FFF7A6B908BD0000002C014064
:101810000010024090F83D10012901D001207047CE
:10182000022180F83D100168CA6842F00102CA60D6
:1018300000680B49884208D0B0F1804F05D00949B3
:10184000884202D00849884204D1816801F007012A
:10185000062903D0016841F00101016000207047B2
:10186000002C0140000400400008004070B5044610
:1018700090F83C000025012817D0012684F83C6030
:10188000022084F83D002068826822F0770222F46A
:101890007F4282600868502838D00DDC20284FD065
:1018A00005DC90B3102811D14AE0022070BD302829
:1018B00046D040280AD13BE060282FD070280DD0B8
:1018C000B0F5805F03D0B0F5005F12D0012584F839
:1018D0003D60002084F83C00284670BDCB68D1E90B
:1018E0000121206800F0D0FE2068816841F0770176
:1018F00009E0CB68D1E90121206800F0C5FE20682D
:10190000816841F480418160E1E719E0CA68496873
:10191000206800F0CBFE5021206806E0CA684968C4
:10192000206800F0D4FE6021206800F0B7FECEE70A
:10193000CA684968206800F0B9FE40212068F4E7D1
:10194000226801461046F0E770472DE9F041044651
:101950000068C66805694FF00007A90713D5B107ED
:1019600011D5F91E01610120207720688069800768
:10197000204602D0FFF7E8FF04E000F07EF82046A2
:1019800000F07CF82777680716D5700714D5216812
:101990006FF004000861022020772068806910F44D
:1019A000407F204602D0FFF7CFFF04E000F065F84B
:1019B000204600F063F82777280715D5300713D5A0
:1019C00021686FF008000861042020772068C06952
:1019D0008007204602D0FFF7B7FF04E000F04DF883
:1019E000204600F04BF82777E80616D5F00614D508
:1019F00021686FF010000861082020772068C06916
:101A000010F4407F204602D0FFF79EFF04E000F074
:101A100034F8204600F032F82777E80708D0F007BE
:101A200006D021686FF001000861204600F028F818
:101A3000280608D5300606D521686FF080000861B9
:101A40002046FFF752FE680608D5700606D52168C5
:101A50006FF040000861204600F03EF8A8060AD565
:101A6000B00608D521686FF0200008612046BDE867
:101A7000F041FFF73BBEBDE8F081704770470000C2
:101A800070B5104904460068096888420FD10E4DB0
:101A9000A87860B900F07EFF0120A87040F63C02F3
:101AA0000A490B4800F004FA08B10020A87009495F
:101AB00020680968884203D1BDE87040FEF716BD72
:101AC00070BD0000700900208F0800204000002039
:101AD000000A0020B80900207047704770470000D6
:101AE000F8B5016804460868CA684B6910F00F0F22
:101AF0004FF0000559D003F0010602F49077374308
:101B000065D0C10705D0D10503D5616C41F0010155
:101B10006164410705D5D90703D0616C41F002012A
:101B20006164810705D5D90703D0616C41F00401D8
:101B30006164010707D502F02001314303D0616CD5
:101B400041F008016164616C00293AD0800604D537
:101B5000900602D5204600F054FE20684069616C72
:101B6000C0F38010090700D460B3204600F014FED3
:101B700020684069400621D52068143050E8001FD5
:101B800021F0400140E80012002AF5D1E06BA8B135
:101B90006D494163E06BFEF703FD002811D0E06B57
:101BA000416B01B0BDE8F040084783060FD59306AE
:101BB0000DD52046BDE8F84000F023BE2046FFF7D3
:101BC0008DFFF8BD2046FFF789FF6564F8BD266BE1
:101BD0002023012E7CD1C6067AD5D60678D5086892
:101BE0004868009048694FF00206400640D5E16B16
:101BF000086840680004000CE8D0A28D8242E5D954
:101C0000E085886920282DD020680C3050E8001F1E
:101C100021F4807140E80012002AF5D120681430C8
:101C200050E8001F21F0010140E80012002AF5D120
:101C30002068143050E8001F21F0400140E80012F5
:101C4000002AF5D184F84230256320680C3050E832
:101C5000001F21F0100140E80012002AF5D1E06BCE
:101C6000FEF77AFC6663A08DE18D401A81B22AE00E
:101C7000A08DE18D401A81B2E08D0028A6D0002908
:101C8000A4D022680C3252E8000F20F4907042E891
:101C90000007002FF5D12068143050E8002F22F003
:101CA000010240E80027002FF5D184F84230256377
:101CB00020680C3050E8002F22F0100240E800238A
:101CC000002BF5D166632046FFF707FFF8BDFFE75D
:101CD00005062BD5150629D594F841002128F5D104
:101CE000A068B0F5805F01D12069B0B1206A411CC5
:101CF0002162216800784860E08C401E0004000CDE
:101D0000E084E3D12068C16821F08001C1602068CF
:101D1000C16841F04001C160D8E7206A0088C0F383
:101D200008004860206A801C2062E5E74006CDD5A7
:101D30005006CBD5CA68204622F04002CA6084F81B
:101D4000413000F00BF9C1E7F326000870B504003C
:101D500004D094F84100002510B106E0012070BDC8
:101D600084F84050204600F023F8242084F84100F5
:101D70002068C16821F40051C160204600F0A2FD36
:101D80002068016921F4904101612068416921F0D6
:101D90002A0141612068C16841F40051C160656455
:101DA000202084F8410084F842006563002070BD63
:101DB000F0B585B00025009501950295039506467E
:101DC0000368334F0220334903224402BB423BD114
:101DD0008B6943F480438B618B6903F480430493E4
:101DE0008B6943F004038B6189692B4F01F0040177
:101DF00004910102CDE90010039269463846FEF7CE
:101E000055FDCDE90045694638460295FEF74EFD81
:101E1000234C224820601020C4E901058020C4E939
:101E2000030580016561C4E906502046FEF7AEFC5B
:101E300008B1FEF78FFBB4630022114625206662CD
:101E4000FEF796FE25201FE0164DAB421ED1CB6952
:101E500043F48023CB61CB6903F4802304938B6923
:101E600043F008038B61896901F00801CDE9032182
:101E7000CDE9004069460C48FEF718FD002201211B
:101E80002720FEF775FE2720FEF764FE05B0F0BDA3
:101E900000380140001002400008014044000240A8
:101EA000900A002000480040000C014070470000EC
:101EB00070B5044690F84100202801D0022070BD82
:101EC00049B342B32162A284E284002060642123EA
:101ED00084F84130A56B114BAB62A56B104BEB62E4
:101EE000A56B104B2B63A36B5863256813462A1D03
:101EF000A06BFEF779FC21686FF040000860206855
:101F0000143050E8001F41F0800140E80012002A20
:101F1000F5D1002070BD012070BD00004D270008E4
:101F20008F2700080327000890F84130202B01D0AC
:101F30000220704779B172B101628284C2840021AB
:101F40004164212180F841100068C16841F080019E
:101F5000C160002070470120704700000068064BF8
:101F60000021064A984201D191707047044B984273
:101F7000FBD1D17070470000003801408F0800206D
:101F8000004800407047FEE730B585B000240F4898
:101F90000094019402940394816941F008018161E5
:101FA00080690B4D00F008000490012202212846B0
:101FB000FEF76CFD02210120CDE90010CDE90241C0
:101FC00069462846FEF772FC05B030BD001002409D
:101FD000000C014010B5FFF7D7FF1420FEF73CFCC2
:101FE00000211B2000F094F80120FEF735FC302181
:101FF000222000F08DF80120FEF72EFC1021252074
:1020000000F086F80120FEF727FC4B21BDE81040C8
:10201000212000F07DB800002DE9F0410122214986
:10202000172000F049F81F4D2878C00637D51E4C00
:102030004FF00008062284F800802946082000F0AE
:102040003BF804F10A00697881702978C170E97859
:102050000171A978417169798171144F2979C17130
:102060003878012638B9092204F10A011048FFF72F
:102070005BFF00B93E70288860806888A080A988CE
:10208000E1800C4A208902EB4002401C80B2918121
:102090002081B0F5207F02D1A4F808806670BDE8E9
:1020A000F0810000B60800207C0800209208002083
:1020B000480A002040000020F7B5114C9DF80000B0
:1020C000164640F080000F468DF8000000220221E5
:1020D0002046FEF7DBFC4FF47A752B460122694659
:1020E0000848FFF743F92B46324639460548FFF7C3
:1020F00093F8012202212046FEF7C8FCFEBD000035
:10210000000C014018090020E8211B20AFF30080DB
:1021100073B5104C9DF80000002200F07F008DF890
:10212000000002212046FEF7B1FC4FF47A752B46E1
:10213000012269460848FFF719F92B46012201A937
:102140000548FFF713F9012202212046FEF79EFC05
:102150007CBD0000000C014018090020094808B5AA
:10216000416941F0010141614069002200F0010034
:10217000009011460E20FEF7FBFCBDE808400E2043
:10218000FEF7E8BC001002402DE9F04186B00024C3
:1021900030480094019402940394816941F0200135
:1021A0008161816901F020010491816941F004019C
:1021B0008161816901F004010491816941F00801A4
:1021C00081618069244F00F00800049000220C21F6
:1021D0003846FEF75BFCDFF884800022022140468F
:1021E000FEF754FC0C2001250226CDE90005CDE9BF
:1021F000024669463846FEF759FB10200090184801
:10220000CDE9010469463846FEF750FB15480095B4
:10221000CDE9010469464046FEF748FBCDE900657B
:10222000CDE9024669464046FEF740FB00221146D2
:102230000620FEF79DFC0620FEF78CFC00221146CE
:102240000A20FEF795FC0A20FEF784FC06B0BDE8E4
:10225000F08100000010024000080140000C014025
:102260000000211000001110104810B50E49016047
:102270004FF482714160002181600122C160C0E998
:102280000412520282612822C0E907214162816260
:102290000A21C162FEF70AFF002803D0BDE8104002
:1022A000FEF758B910BD000000300140C008002002
:1022B000104810B50E4901604FF482714160002151
:1022C0008160C1604FF400720161C0E905122022F3
:1022D000C0E90721416281620A21C162FEF7E6FE80
:1022E000002803D0BDE81040FEF734B910BD00004F
:1022F000003800401809002010B586B000241848A6
:102300000094019402940394049414490594016088
:1023100041F61F41C0E9011440F69F71C0E9031462
:1023200044618461FFF718FA08B1FEF713F94FF41E
:102330008050009069460A48FFF798FA08B1FEF706
:1023400009F9049404A906480594FFF7D1F9002877
:1023500001D0FEF7FFF806B010BD0000002C0140D0
:102360007009002010B586B000241848009401942C
:102370000294039404944FF0804105940160472136
:10238000C0E9011440F23331C1604FF48071016142
:1023900080218161FFF7E0F908B1FEF7DBF84FF427
:1023A0008050009069460948FFF760FA08B1FEF7CF
:1023B000D1F8049404A905480594FFF799F9002879
:1023C00001D0FEF7C7F806B010BD0000B809002024
:1023D0000C4810B50A4901604FF4E1214160002129
:1023E00081600C22C160C0E904128161C161FFF704
:1023F000ADFC002803D0BDE81040FEF7ABB810BD1F
:1024000000380140000A00200C4810B50A4901605C
:102410004FF4E1214160002181600822C160C0E9E0
:1024200004128161C161FFF791FC002803D0BDE86F
:102430001040FEF78FB810BD00480040480A002049
:10244000FEE7FEE77047F8B5044640684FF4827334
:10245000984217D1A0684FF48065B0F5004F01D0C5
:10246000A8420FD12068066826F040060660606822
:10247000984207D1A068A84204D100920B460022DE
:10248000012103E000920B4600228021204600F04B
:1024900023F8002804D0606D40F020006065032020
:1024A000F8BDF8B515460E460B46009204460122CB
:1024B000022100F011F840B9334600228021204665
:1024C000009500F009F8002804D0606D40F020006D
:1024D00060650320F8BD00002DE9F8431E469146D3
:1024E00088460446089DFEF7D7FA401B351AFEF7CA
:1024F000D3FA074625480068C0F3CB30684338E07C
:10250000701C37D0FEF7C8FAC01BA84203D215B121
:10251000009860B32CE02068416821F0E001416040
:102520006068B0F5827F0BD1A068B0F5004F02D093
:10253000B0F5806F04D12068016821F0400101608E
:10254000A06AB0F5005F09D12068016821F400514C
:1025500001602068016841F400510160012084F8A5
:102560005100002084F850000320BDE8F8830025C6
:10257000401E00902068816838EA010004D00021E4
:102580004945BDD10020F0E70121F9E7A00800206E
:102590007047FEF787BA30B58FB028216846FDF73F
:1025A000C8FD14210AA8FDF7C4FD01210804CDE9E6
:1025B00000100024029402250491CDE907504FF445
:1025C000E01009906846FEF7E1FB08B172B6FEE73D
:1025D0000F20CDE90A054FF48060CDE90C400221BF
:1025E0000AA80E94FEF7F6FA002801D072B6FEE7AC
:1025F0000FB030BD704700000148FFF7A6B90000DA
:10260000700900200148FFF7A0B90000B8090020B8
:10261000F0B50268194B1A4C1A4D4FF0804798429A
:1026200005D0B84203D0A04201D0A84203D122F085
:1026300070064A683243984205D0B84203D0A0429F
:1026400001D0A84203D122F44074CA6822434C69E5
:1026500022F08002224302608A68C2620A688262B3
:10266000984201D109690163012141610169C907EA
:1026700003D0016921F001010161F0BD002C01408E
:10268000000400400008004010B5846842EA0322BC
:1026900024F47F440A432243826010BD826822F002
:1026A00070020A4342F007018160704710B5036A67
:1026B000046A24F001040462846924F0F00444EA0A
:1026C000021423F00A020A438461026210BD10B5AD
:1026D000036A046A24F010040462846923F0A003EE
:1026E00024F4704444EA023243EA01118261016237
:1026F00010BD10B5406A0021C185C184FFF7EEF915
:1027000010BD70B5446A2068406994F84110C0F368
:10271000C0100025212904D118B1E584204600F01D
:1027200062F82068406994F84210C0F380102229B2
:1027300004D118B1E585204600F02EF8606C40F019
:10274000100060642046FFF7C9F970BD10B501465E
:10275000406A09680968890616D40021C1840168A5
:10276000143151E8002F22F0800241E80023002BB1
:10277000F5D101680C3151E8002F42F0400241E8E8
:102780000023002BF5D110BDFFF7E8FB10BD10B5FD
:10279000406AFFF7F7FB10BD01680C3151E8002FCC
:1027A00022F4907241E80023002BF5D10168143126
:1027B00051E8002F22F0010241E80023002BF5D15F
:1027C000016B012909D101680C3151E8002F22F079
:1027D000100241E80023002BF5D1202180F842109F
:1027E00000210163704701680C3151E8002F22F08D
:1027F000C00241E80023002BF5D1202180F84110D0
:10280000704708B590F84210222901D0022008BD77
:1028100082684FF480539A4201D1016921B1816AE3
:102820009A421BD04AB10AE00268816A5268C2F338
:1028300008020A80816A891C08E0026972B1026894
:10284000526802F07F020A70816A491C8162C18D60
:10285000491E0904090CC18503D01BE002685268B7
:10286000F1E70168CA6822F02002CA600168CA68FC
:1028700022F48072CA6001684A6922F001024A614A
:10288000202180F8421000214163026B012A03D00D
:10289000FFF70CFB002008BD016301680C3151E813
:1028A000002F22F0100241E80023002BF5D101682F
:1028B0000A68D20602D50A6849680091818DFFF73F
:1028C0000CF9E7E770B5044600680169E26821F495
:1028D0004051114301612169A068084361690843BF
:1028E0002168CA6841F20C639A430243CA602068B7
:1028F0004169A26921F44071114341611E49206878
:10290000884202D1FEF70CFA01E0FEF7F9F900EB7C
:10291000C00101EB0012606864218000B2FBF0F39B
:10292000B3FBF1F36FF018067343B2FBF0F5B2FBA3
:10293000F0F605EB8305322303EB0515B5FBF1F546
:10294000B6FBF1F605F0F00505EB0615B2FBF0F667
:10295000B2FBF0F0B0FBF1F06FF01802504306EB61
:10296000800003EB0010B0FBF1F0216800F00F00D5
:102970002844886070BD0000003801400148FFF71E
:10298000AFB80000000A00200148FFF7A9B8000016
:10299000480A002030B50020194902468B5C521CC1
:1029A00092B218440C2AF9D300224FF4A07400BF4D
:1029B00001EB4203521C9B8992B200EB1320DBB265
:1029C0001844A242F4D300224FF4F0748B18521C26
:1029D00093F88C5292B2284493F86C5493F84C3686
:1029E00028441844A242F1D300228B18521C93F8B9
:1029F0002C3892B218440D2AF7D381F8390830BD2B
:102A000040000020FEE70907090E002804DB00F162
:102A1000E02080F80014704700F00F0000F1E02083
:102A200080F8141D704702E008C8121F08C1002A70
:102A3000FAD170477047002001E001C1121F002A3F
:102A4000FBD17047FEF736F8FFF7A5FDFFF79CFBBB
:102A5000FFF784FBFFF708FCFFF7BAFCFFF7D4FC95
:102A6000FFF74AFCFFF77EFCFFF722FCFFF7B2FA04
:102A7000FDF7D4FBFFF748FB0A48FEF7CBFE0A48F8
:102A8000FEF7C8FE094C00252078012802D12570E8
:102A9000FDF73EFC60780128F6D16570FFF7BCFABF
:102AA000F2E7000070090020B80900208F0800201C
:102AB000010202030405060708090A0B0C0D0E0F9C
:102AC00010100000000000000000010203040607CF
:102AD000080900000000010203040000FC2A0008AD
:102AE00000000020A40800006C0100084C2B000826
:102AF000A408002034060000362A000801153E42D2
:102B0000000142005C4200AB420023432E44003CE3
:102B10004500194600044700F450C5115100010C4E
:102B2000FF5AA5B50A02DD8002A0000201FF01FFE5
:102B300001FF01FF01FF01FF01FF0140B3DDEE7363
:0C2B40006ABD627C4201921014127A00FF
:04000005080000ED02
:00000001FF
